:020000003AC004
:1000020067C073C0FCCFFBCFFACF7CC0F8CFF7CF6D
:10001200F6CFF5CFF4CFF3CFF2CFF1CFF0CFEFCFD2
:10002200EECFEDCF4744523A20002E007553762F83
:10003200680043504D3A200020546F74616C0043B5
:1000420050533A20003F00476569676572436F75F8
:100052006E746572206279004379626572456C65DF
:100062006374726F6E696373000080C00200AD003A
:100072006C000000F894EE27ECBBE5BFF8E1A4B7F2
:10008200A77FA4BFF1BDE1BD8DE0A2E0ED938A950B
:10009200E9F780E8A0E6ED938A95E9F7EEE6F0E06D
:1000A20085919591009761F0A591B5910590159074
:1000B200BF01F00105900D920197E1F7FB01F0CF2E
:1000C200E0E0E3BBE4BBE5BBEFEDEDBFCEE6A9C1EB
:1000D200C8D2A9EACCD2A091A500AE3118F4F3019E
:1000E20031963F019B9ACC2416C0EA93FA939D9ACB
:1000F200E0E0E093A400C1D24F013F01C1D2F991E7
:10010200E9911895AED2E091A400EF5FE093A400CC
:10011200C394A7EAACD2E991EFBFF991E991A99111
:1001220018959D9B04C0A091A400A93C08F407C0A7
:100132009D98959A9E9B02C09E9801C09E9A089592
:100142009CD2A1D22F01DD24E4E1DE1618F4A0D264
:10015200D394FACFA5D2E4E1F0E030D394D208955B
:10016200EFE0F7E2E815F90518F4D4019FD2A1D225
:10017200E7EEF3E0E815F90510F4D4019ED2E3E6C8
:10018200F0E0E815F90510F4D4019DD2D401A2D211
:10019200D401A7D20895E4D1E6E2F0E0A8D2EFE0DC
:1001A200F7E2E215F30518F4D10180D282D2E7EE2C
:1001B200F3E0E215F30510F4D1017FD2D10183D22D
:1001C200ECE2F0E094D2D10185D2D1018AD2EEE202
:1001D200F0E08DD28FD2E1E0EA93B3D19E9912C0C2
:1001E200E0E0E093A600E4E3F0E081D24301B8DF6F
:1001F200A091A500AE3128F0EAE3F0E078D2EEE17A
:100202003FD213C0E1E4F0E072D2A091A600A33085
:1002120059F44501D401E6E0F0E0D0D24F01E0E02C
:10022200E093A600AE2EBB249BDF0895A091A70009
:10023200B091A800A43CE9E0BE0708F44AC05DD230
:10024200AEE6EE0FEA0FA091A900B091AA00A0833A
:10025200B1839E9B03C054D2AE0EBF1E51D2E09317
:10026200A000F093A100E091A600EF5FE093A6004A
:10027200E0E0E093A900E093AA009C9A3ED2EF5FEF
:10028200E093A200E091A500EF5FFAD1E0E0E093F5
:10029200A700E093A800A091A200A431D1F49A9AF9
:1002A2004FDFE091A300A6E9EE0FEA0F2ED2A08362
:1002B200B183E091A300EF5FE093A300A091A300BC
:1002C200A43021F4E0E0E093A300999AE0E0E09307
:1002D200A20008959B9B06C0949AE3E0CE1610F00C
:1002E2009B98949808959C9B9BC0999942C09A9917
:1002F20013C0C3D12F01E03011F49C9801C09C9A25
:10030200DD24FBD1DE1618F4C3D1D394FACFC8D1C1
:10031200F4D1F0E053D223C09A9B23C09C98FAD127
:10032200309721F4FCD111F400D209F005C003D2B8
:10033200FD01F695E79513C0F2D111F4F6D109F05B
:1003420007C0F9D1E7D100D2E3E0F0E037D207C02D
:10035200ECD139F4F0D1DED1FAD1FD011AD21F016C
:100362001ADFE4E0EA93C6D1ECD0E7E4F0E0BFD1D3
:100372000EC09C98E0D1CED1EAD1E0919C00F091E0
:100382009D00E2D1E5E0F0E019D21F0104DFE5D1E2
:10039200309749F0E2D1EE0FFF1F3596DF01E2D12F
:1003A200AE17BF0748F0DED1EE0FFF1F3596DF0113
:1003B200D4D1AE17BF0778F5E0E0E093A200E09356
:1003C200A3005ED1F0E03F01E0939C00F0939D001A
:1003D200E0939A00F0939B00E0939800F0939900C9
:1003E200E0939600F0939700E03011F49A9801C0E0
:1003F2009A9AE03011F4999801C0999ADD24E4E1C7
:10040200DE1648F4ED2DAEE6EE0FAE0F36D1ED93CB
:10041200FC93D394F4CFA6D1E0939E00F0939F0077
:100422000895E0E8E6BDE0E0E6BDEBBBEABBE8BB71
:10043200E8E0E7BBE2BBE0E7E1BBE0E0E0BFE3E02E
:10044200E3BFE0E0E2BFE6BFECBFE0E8EFBDE2E120
:10045200EEBDE0E0EDBDECBD29D1F5BDE4BDE8EEB9
:10046200F3E0FBBDEABDE0E0E9BDE8BDE0ECEBBFD7
:10047200EAE0E5BFE0ECEABFE2E0E9BFE0E0EDB9C7
:10048200EBB9E8E9EAB9E6E0E3B9E0E0E2B9E1E8CC
:10049200E9B9E0E8E8B9E0E1EA93B6D0789498994E
:1004A20011C0989A959AE9E4F0E021D123D1E1E0D4
:1004B200EA9347D0EAE5F0E01AD1E8EEF3E0FA93E6
:1004C200EA935BD12EDEB2DE05DF0DDFE8CFFFCF90
:1004D200FFE0FA95F1F70895A7B3AF70A7BBC19AF1
:1004E200C098F6DFC29AF4DFA6B3C298F1DFC29ACF
:1004F200EFDFC298A7FDF5CF0895A07FAB2BA8BB75
:10050200C29AE6DFC298E4DF0895C198A7B3A76F45
:10051200A7BBB8B3BF70A881F0DFA881A295EDDFB9
:10052200C19A9DC0C29AD4DFE6B3C298D1DFE07F00
:100532000895CEDFF7DFAE2FF5DFC198E295EA2B03
:100542000895CADFE881E355E081A981EA0F0FD15E
:10055200E981E093B100E881E093B2002296089528
:10056200BBDFE2E004D1B8DFECE001D1B5DFE1E0CE
:10057200FED0E0E0E093B200E093B1000895EF9383
:10058200FF93A8816894AA3039F0E894E091B3000F
:10059200A091B100AE1758F0E091B200EF5FE09386
:1005A200B200A8D0E091B200EA93CBDF56F0E0911E
:1005B200B100EF5FE093B1008FDFC09AA881AA93E8
:1005C200A4DFFF91EF914BC01A93E981FA81319632
:1005D200E983FA833197E4911E2FE03019F01A93E0
:1005E200CEDFF3CF188123960895AA27BB27119750
:1005F200F1F70895C198A7B3A76FA7BBB8B3BF70AF
:10060200A8817BDFC19A2BC0C298C098E881E09391
:10061200B300E058E093AF00E881E054E093B0000B
:10062200A8D0A7D0A6D0E1DFE0E2EA93E3DFDDDFE6
:10063200E8E29DD0DADFE4E09AD0D7DFE5E897D0B0
:10064200D4DFA7B3AF70A7BBC19A73DFE53011F057
:10065200E0E005C041DFE6E08AD082DFE1E02196FA
:100662000895AA93EA93FA93EFB7EA930895ED9166
:10067200FD913196FE93EE930895E0E0F0E0089547
:10068200E093A5000895E093AB00F093AC000895C9
:10069200ED2DAEE6EE0FAE0FA7D04E0E5F1E089503
:1006A200F201A4E1B0E07AD0DF010895E0E1F7E2DF
:1006B200089584D0E05DEA9362CFF8DF92D0DF0143
:1006C200E8EEF3E0F6CFE8EEF3E08BD0DF01E4E60C
:1006D200F0E0EFCFE4E6F0E084D0DF01EAE0F0E022
:1006E200E8CFEAE0F0E07DD0E05DEA9348CFFA930C
:1006F200EA936ACFE0E0EA930895E091A2000895B8
:10070200E091A900F091AA000895A091AB00B091E8
:10071200AC000895E0919800F09199000895E0915D
:100722009A00F0919B0030970895E0919C00F0911F
:100732009D003097089504DDE0919600F0919700B6
:10074200E4DFAE0FBF1F0895AE0FBF1F0895FCDF99
:10075200E0919A00F0919B00F7CFE0919E00F0911A
:100762009F000895E091A000F091A1000895EA93FE
:10077200CCCE3BDFE0E3EA933DCFE991F9913096AD
:1007820039F088E893E10197F1F7A8953197C9F715
:100792000895F695E795F695E79508950A2E1B2E8E
:1007A20081E1AA27BB1B05C010F4A00DB11DB695AF
:1007B200A795F795E7958A95B9F70895002411242E
:1007C20090E1AA0FBB1F001C111C0E1A1F0A18F47D
:1007D2000E0E1F1E01C0A1609A9599F7FD01D0016E
:1007E2000895ECDFFD010895ED91FC91AA9508951D
:00000001FF
